:020000040000FA
:10000000B8060020D5000000F5000000F700000051
:1000100000000000000000000000000000000000E0
:10002000000000000000000000000000F9000000D7
:100030000000000000000000FB000000FD000000C8
:10004000FF000000FF00000085050000F50500002E
:10005000FF00000045060000FF000000FF00000058
:10006000FF000000190B0000FF000000FF0000006F
:10007000FD0C0000FF000000FF000000FF0000007A
:10008000FF000000FF000000FF000000FF00000074
:10009000FF000000FF000000FF000000FF00000064
:1000A000FF000000FF000000FF000000FF00000054
:1000B000FF000000FF000000FF000000FF00000044
:1000C0000348854600F068F800480047A91C000076
:1000D000B80600200A480B4901600B4901600B4932
:1000E00001600B4A0B491160002101600A488047FA
:1000F0000A480047FEE7FEE7FEE7FEE7FEE7FEE709
:1001000000010050590000001600000088000000A7
:1001100024000050A55A00001D0A0000C100000084
:1001200030B50B46014600202022012409E00D468F
:10013000D5409D4205D31D469540491B2546954017
:1001400040191546521E002DF1DC30BD70B500245B
:100150002546002801DA01244042002901DA012560
:100160004942FFF7DDFFAC4200D04042002C00D0F6
:10017000494270BD03460B439B070AD102E008C900
:10018000121F08C0042AFAD203E00B780370491C3E
:10019000401C521EF9D27047064C0125064E05E060
:1001A0002046E36807C82B4398471034B442F7D37E
:1001B000FFF78AFF582600007826000070B58C18DB
:1001C0000578401C6B075B0F01D10378401C2A1196
:1001D00006D10278401C03E006780E70401C491CD2
:1001E0005B1EF9D12B0706D4002301E00B70491CDC
:1001F000521EFBD50AE00378401CCB1A921C03E088
:100200001D780D705B1C491C521EF9D5A142D7D335
:10021000002070BD00B507480078002806D00020F7
:1002200005490860012000F0A3FB02E0002000F077
:100230009FFB00BD1801002080420050064AC10FFC
:1002400089005258C306DB0E012199400A43024B34
:10025000C10F89005A50704708020050FEB50020B7
:10026000029019A0006800901848046A0013044224
:1002700001D00020FEBD0120C004044201D0144D75
:1002800000E0144D01204004044201D02846F1E76B
:10029000032080032040800B69460A5C0192E00540
:1002A000C00D861C1F2040022040400A871C019A76
:1002B0007A431146AA0872431046FFF731FF8000C7
:1002C00002900298D6E700000102020400020050EA
:1002D00000805101001BB700FEB50020029019A05C
:1002E000006800901848046A0013044201D00020FE
:1002F000FEBD0120C004044201D0144D00E0144DA5
:1003000001204004044201D02846F1E70320800385
:100310002040800B69460A5C0192E005C00D861CF6
:100320001F2040022040400A871C019A7A43114650
:10033000AA0872431046FFF7F3FE8000029002986D
:10034000D6E70000010202040002005000805101C3
:10035000001BB700F0B5002300240025C600360FAF
:100360000FD0124E4700BF0FBF00F4192368C6001C
:10037000360FC701FF0EBE401F46B7430F433B4633
:1003800023608603360E10D0084E08360703BF0FD1
:10039000BF00F5192B688603360EF6438705FF0E5E
:1003A000BE401E40164333462B60F0BD1002005085
:1003B000064904E00A46491E002A00DC04E0044A1B
:1003C000D26802408242F5D100BF704790D003004E
:1003D00000020050F8B5204800682049884202DD3C
:1003E00008461D4908601C480068002802DA002001
:1003F000194908603C2118480068FFF7A7FE0A2148
:100400000090FFF7A3FEC7B23C2113480068FFF736
:100410009DFE0A210090FFF799FECEB23C210E48C6
:100420000068FFF793FE00910A210098FFF78EFE07
:10043000C5B23C2108480068FFF788FE00910A21F8
:100440000098FFF783FECCB223462A463146384651
:1004500000F09AFAF8BD0000100100206F170000AC
:1004600010B50122FF210F4800F003F90122E0211D
:100470000C48803000F0FDF8012210210A4800F0FD
:10048000F8F801220421084800F0F3F800220821BE
:10049000054800F0EEF80020044948618861C86111
:1004A00010BD00000040005000410050404200508C
:1004B00029480078012806D0022813D0032821D02B
:1004C00004283CD12CE00020244908610120234964
:1004D00040394861224820491C390978405C21494B
:1004E00088602CE000201D49403948610120886166
:1004F0001B4819491B390978405C4006400E1949D0
:1005000088601CE000201549403988610120C861DD
:10051000134811491A390978405C124988600EE085
:1005200000200E494039C86101200C4908610C487F
:10053000094919390978405C0A49886000BF00BF41
:1005400005480078401C04490870084600780428D3
:1005500001DD002008707047280100208042005013
:100560004C2600000040005000B5054800680028F7
:1005700004D0FFF79DFF00200149086000BD000086
:100580001C01002004201649086216480078012842
:1005900024D01548C06A002810D1144800681449B6
:1005A000884205DA114800680F301049086015E0EC
:1005B0000E4800683B300D4908600FE00B480068AA
:1005C0000B49884205DA094800680F380749086076
:1005D00004E0064800683B380449086070470000A2
:1005E000C04000501901002040420050100100207E
:1005F0009C0400000820014908627047C040005078
:1006000072B6704762B6704703480068012108431C
:10061000014908607047000000C0005001460020FA
:10062000074AD0601046416001201061BFF36F8F10
:1006300000BF034800690028FBD10148806870476B
:1006400000C0005010B508200249086200F0EEFA20
:1006500010BD00000041005010B58469130E8B409E
:100660001C438461C46913021B0A8B401C43C46190
:1006700010BD70B500230EE001249C400C4209D04F
:1006800004685E000325B540AC435E001546B540E6
:100690002C4304605B1C082BEED370BD10B51F20EB
:1006A0000003FFF7BBFF024908600846006810BD61
:1006B0002C010020C206D20E01219140014A116096
:1006C0007047000000E100E010B5002819DA1A4A6E
:1006D00003071B0F083B9B089B00D2588307DC0EC7
:1006E000FF23A3409A438B071B0E8407E40EA3400D
:1006F0001A43114B0407240F083CA408A4001A5104
:1007000018E00E4A03231B02D21883089B00D3581B
:100710008207D40EFF22A24093438A07120E840759
:10072000E40EA2401343054A03242402121984084C
:10073000A400135110BD00001CED00E000E100E03A
:1007400010B5002819DA1A4A03071B0F083B9B084B
:100750009B00D2588307DC0EFF23A3409A438B07EC
:100760001B0E8407E40EA3401A43114B0407240F09
:10077000083CA408A4001A5118E00E4A03231B02E7
:10078000D21883089B00D3588207D40EFF22A240C0
:1007900093438A07120E8407E40EA2401343054ACE
:1007A0000324240212198408A400135110BD000070
:1007B0001CED00E000E100E010B500220421234818
:1007C000FFF757FF0122120402212048FFF744FFE0
:1007D0000220FFF76FFF002208211C48FFF749FFA6
:1007E0000122120403211948FFF736FF0320FFF707
:1007F00061FF32201549C0310860144840690C215E
:100800000843124948610022082110484030FFF790
:1008100030FF0122120403210C484030FFF71CFF77
:100820000520FFF747FF0948403040690821084389
:100830000649403148610122114604484030FFF723
:1008400018FF00200249086010BD0000C0400050A1
:100850008042005010B5174800680421084315492C
:1008600008601020FFF7A4FD072012490861084620
:10087000006AC90108430F4908620846006804215C
:1008800008430C4908600C4808621020FFF790FDEF
:100890001420FFF78DFD1A2006490861074888607B
:1008A0000748486100F088F8032005210907C8635C
:1008B00010BD000000020050395608000800010079
:1008C000002000010A49020E92008A58012181404D
:1008D0000A430749030E9B00CA50020E92008A5831
:1008E000012181408A430249030E9B00CA50704790
:1008F000080000500168002934D01B4A01681160CB
:1009000000BF2221194AD1601F2109035160012132
:100910001161BFF36F8F00BF00BF1449096900293F
:10092000FBD1124909684022114203D040210F4AED
:10093000116000E000BF0C4A116821220B4BDA6005
:100940001F2212035A601A46916001221A61BFF3F6
:100950006F8F00BF00BF054A1269002AFBD100BF9C
:1009600000210160704700002C01002000C00050F1
:10097000002803D00121034A916002E00021014ACE
:10098000916070478042005010B5092801DC094C85
:100990002070092902DC074C641C2170092A02DC42
:1009A000044CA41C2270092B02DC024CE41C2370B2
:1009B00010BD00000C01002070B512480069450709
:1009C0006D0FFFF789FC10490860022D03D0A800C5
:1009D0000E490C5801E00C4804680A488069000779
:1009E000000F461C31462046FFF79AFB0849086075
:1009F0000849074800684A108018FFF791FB06492C
:100A0000086070BD00020050080100202C26000084
:100A10000001002040420F00040100207047000048
:100A200030B589B004462022194901A8FFF7A2FB7E
:100A30001848844206D11848406907210902084035
:100A4000050A1AE013482030844206D11248406952
:100A5000072109030840050B0FE01048844206D126
:100A60000D484069072109040840050C05E00A48C3
:100A70004069072109050840050D022D03D10848EA
:100A8000006809B030BDA80001A90858F9E70000C6
:100A9000DC25000000000140000200500000114071
:100AA00000010020F7B582B004460D462046FFF74E
:100AB000B7FF06460027002001907008049988427D
:100AC00001D202271BE001208006864203D30720C3
:100AD0000190F6080EE001204006864203D3032071
:100AE0000190B60806E001200006864202D30120EC
:100AF0000190760830460499FFF712FB07460198EB
:100B00002843206067600198401C784301463046C6
:100B1000FFF706FB05B0F0BD10B500BF12488068B6
:100B2000C007C00F01281DD100BF0F49886000BF5A
:100B300000F0D4F80D480078002810D00C48006868
:100B4000401C0B490860084600680A490988884229
:100B500008DB01F05BF900200549086002E0002095
:100B60000349086010BD000020000140080000207B
:100B70000C0000201000002012480068401C1149A1
:100B8000086008460068104988421AD900200D49BB
:100B9000086008460B380078012812D10B4800681D
:100BA000002805D10A3908700120891E087008E064
:100BB000002004490C39087004480068401E0349AD
:100BC0000860704724010020204E00001001002022
:100BD00010B5002012490870FFF716FD1F20000312
:100BE000FFF71CFD0E49491F0860084600680D49C3
:100BF000884204DD00200A49491F086005E00848D2
:100C0000401F00680649491F08600548401F0068EA
:100C10000549086000200249491F086010BD000016
:100C200019010020701700001001002010B528489D
:100C30000078002802D0012847D126E02548006826
:100C4000002802D0012024490860012020490870B2
:100C5000481C0078002801D1012000E000201C4938
:100C6000491C0978022901D1012100E00021084333
:100C70000AD000201649491C087016480068891FD0
:100C800008600846FFF736FE1FE01148401E007856
:100C900000280ED002200E4908700020491E08705E
:100CA000FFF7FCFC0B49086002200949491C087049
:100CB00005E00220064908700120491C0870002048
:100CC000034908700449086000BF00BF10BD000060
:100CD00019010020100100208042005000B5FFF7EC
:100CE0004BFF05480068401C03490860081D006868
:100CF000401C091D086000BD1C01002010B50948FA
:100D0000C069C007C00F02D001F088F808E00548AC
:100D10008069012109070840000F01D001F086F821
:100D200010BD000000000540F0B585B004460D463A
:100D30001E4801AF4EC84EC7002000901C484069B5
:100D4000032109060840060E002020630320E0600E
:100D5000A06818490840A060012E04D1FFF77EFA70
:100D6000B10001AA5050002D1ED0B10001AA515867
:100D70006A0888182946FFF7D3F9801E00900E49AB
:100D8000009888420BD9B10001AA5158EA0088188E
:100D90002946FFF7C5F90009801E606204E00321BF
:100DA000090700980843606205B0F0BDFC2500000B
:100DB000000200500FFFF0FFFFFF000030B4744648
:100DC000641E2578641CAB4200D21D46635D5B0047
:100DD000E31830BC184702E008C8121F08C1002AF7
:100DE000FAD170477047002001E001C1121F002AAC
:100DF000FBD1704710B50246002009E01478521C60
:100E000003125C406300054CE35A0402634098B24D
:100E10000B464C1EA1B2002BF0DC10BDDA23000003
:100E2000F8B504460D460026207804283FD16078A6
:100E3000022806D0042812D005281AD006282DD161
:100E400022E008202070022060700020A07089201D
:100E5000E070002020716071062028801EE00620CE
:100E60002070042060700020A070E07004202880B2
:100E700014E006202070052060700320A070E82098
:100E8000E0700420288009E0062020706070552062
:100E9000A070F020E0700420288000BF00BF002771
:100EA000002F05D0384600F09FFF064600E00326DD
:100EB0003046F8BD10B5002407480078012807D156
:100EC000054894300068804700200349087000E01E
:100ED0000624204610BD000048000020F0B585B073
:100EE00004460D46002001902888052850D16078DE
:100EF0000602A0780643701C86B2E07800020390D8
:100F00002079039908430390039801283DDB7D2154
:100F100009010398884238DA0294002028800120D1
:100F2000029C2070029C601C02902888401C288033
:100F300003984007400F07D00398C117490F0918BD
:100F4000C910491CCFB205E00398C117490F091811
:100F500049050F0E029807700298401C02902888DD
:100F6000401C288031460023039A029800F092FC2E
:100F700000900098002804D0009800F035FF019000
:100F800008E02888C019288004E00320019001E0CF
:100F900003200190019805B0F0BDF0B585B004467E
:100FA0000D4600200190288805284FD16078060260
:100FB000A0780643701C86B2E07800020390207986
:100FC000039908430390039801283CDB7D21090124
:100FD0000398884237DA0294002028800220029C7D
:100FE0002070029C601C02902888401C2880039876
:100FF0004007400F07D00398C117490F0918C910BF
:10100000491CCFB205E00398C117490F09184905DB
:101010000F0E029807700298401C02902888401C0E
:1010200028803146039A029800F0E2FC0090009874
:10103000002804D0009800F0D7FE019008E028882E
:10104000C019288004E00320019001E003200190F2
:10105000019805B0F0BDFEB504460D460020019094
:101060002888052839D160780602A0780643701CCC
:1010700086B2E07807022779012F2BDB7D2F29DC50
:101080000294002028800320029C2070029C601C97
:1010900002902888401C28807806000E029908706B
:1010A0000298401C02902888401C28803A4631460D
:1010B0000023029800F044FD00900098002804D01E
:1010C000009800F091FE019009E02888790040180E
:1010D000288004E00320019001E0032001900198A2
:1010E000FEBDFEB504460D46002001902888052867
:1010F00039D160780602A0780643701C86B2E07889
:10110000070220790743012F2ADB7D2F28DA02947A
:10111000002028800420029C2070029C601C029009
:101120002888401C28807806010E029801700298D9
:10113000401C02902888401C28803A46314602987C
:1011400000F05EFD00900098002804D0009800F0A8
:101150004BFE019009E0288879004018288004E0BF
:101160000320019001E0032001900198FEBDF0B53D
:1011700087B004460D460020019028880A2868DBC5
:10118000607800020690A0780699084306900698B9
:10119000401C80B20690E078000205902079059905
:1011A00008430590607900020490A07904990843EF
:1011B00004900498401C80B20490E07900020390EF
:1011C000207A039908430390607A029005980128D9
:1011D0003DDB05987D283ADC0398012837DB03982E
:1011E000792834DC03984000029988422FD12046A8
:1011F0000A300123039A049900F0A2FC0746002F4D
:101200001ED126462880172030703446761C288848
:10121000401C288005984006000E3070761C2888F7
:10122000401C288030460023059A069900F088FC6F
:101230000746002F04D128880599490040182880C6
:10124000002F06D0384600F0CFFD019001E00320CA
:101250000190019807B0F0BD70B504460D460648F0
:1012600002880649601CFEF785FF03480088401C81
:101270002880002070BD000044000020940400205D
:10128000FEB504460D4600200090288805282BD185
:1012900060780602A0780643701C86B22079002888
:1012A0001FD1E078FF2802D0E078002819D1002073
:1012B0006B465871E078FF2802D10120187102E0D6
:1012C00000206B4618710122314601A8134600F038
:1012D000E1FA0746002F09D0384600F085FD00905E
:1012E00004E00320009001E0032000900098FEBD80
:1012F000F8B504460D46002000902888052813D133
:1013000060780602A0780643701C86B2012231463E
:10131000E01C134600F014FC0746002F06D03846A8
:1013200000F062FD009001E0032000900098F8BDFD
:10133000F0B585B004460D460020019028880528A8
:101340003DDD60780602A0780643701C86B2E07826
:10135000070220790743607903907807400F08D08F
:101360003846F917490FC919C910491CC9B2029169
:1013700006E03846F917490FC9194905090E0291C7
:10138000012F19DB7B200001874215DC03990298AD
:10139000884211D13A463146A01D012300F07AFA65
:1013A00000900098002804D0009800F01DFD0190E6
:1013B00007E00520288004E00320019001E00320DD
:1013C0000190019805B0F0BDFEB504460D46002021
:1013D00001902888062829DB60780602A078064359
:1013E000701C86B2E078070220790743607902908A
:1013F000012F18DB782F16DC7806000E0299884240
:1014000011D13A463146A01D012300F099FB00900E
:101410000098002804D0009800F0E6FC019007E056
:101420000520288004E00320019001E003200190C2
:101430000198FEBDFFB581B004460D4616460A9FD1
:1014400000200090FF2D03D0002D01DBF72D02DDE1
:10145000022000903AE01F480570002C21D11E4860
:101460001C49C91D08601D48091D08601C48083931
:1014700008601C480C3108600020091D08601A48EB
:101480001A4908601A481B4908601B481B49086034
:101490003B4631460F480078049A00F039F9009035
:1014A00002E00220009000BF00BF009800280DD18C
:1014B00000F02CFD002802D10320009006E0054832
:1014C000401C0470012003498D390870009805B054
:1014D000F0BD0000D5000020591800007D18000064
:1014E000D11700006517000019200000EC00002053
:1014F000ED200000F0000020A9200000F4000020F2
:1015000038B5002581480078002801D0062038BD74
:10151000684600F0E9FC01287ED16B461B78FFF796
:101520004DFC0504058EF02EF100EBE0774A8A327F
:10153000911F081D034614331B6898470546002D6C
:101540000FD172488830007870498D31097888420F
:1015500004D06E4888300078FF2802D1022000F0C5
:10156000DDFC082D0AD169488830007867498D3143
:101570000978884202D1042000F0D0FCC2E0634820
:101580008430006800786149893108700120C91CE5
:10159000087000241CE0E0005C49091D085C00287C
:1015A00000D117E0E0005949091D085C8531097830
:1015B00088420CD1E0005549091D40188631426827
:1015C000881F0068904751498C31087002E0641C04
:1015D000102CE0DB00BF4D4888300078FF282DD06C
:1015E0004A488C30007800281ED0002047498A31B4
:1015F0000880481E01788020014344488A300288D0
:101600000088401C414B8A331880981F0068815421
:10161000981C0278801E00E075E001880088401C5C
:101620001880981F0068425438488A300288801F0A
:1016300001680930007800F067FBC5B262E033480A
:101640008430006800783149893108700120C91C54
:10165000087000241CE0E0002C49091D085C0028EB
:1016600000D117E0E0002949091D085C853109789F
:1016700088420CD1E0002549091D40188631426896
:10168000881F0068904721498C31087002E0641C73
:10169000102CE0DB00BF1D4888300078FF282ED0DA
:1016A0001A488C30007800281DD0002017498A3154
:1016B0000880481E01788020014314488A3002883F
:1016C0000088401C114B8A331880981F0068815491
:1016D000981C0178801E02880088401C1880981F82
:1016E000006881540EE009488A300288801F016832
:1016F00009300078054B90331B689847054601E098
:10170000FFE700BF00BF002001E700004800002005
:10171000F8B50C4615461E460027FEF771FF334606
:1017200008222946204600F00BFC012801D003279F
:1017300012E04B200002854202D92320009004E0F1
:1017400069000748FEF7ECFC0090009988B200F0B1
:1017500033FC012800D00327FEF754FF3846F8BDBC
:10176000A07F1700F8B504460D4616460027FEF781
:1017700047FF15480088042811DB134801881348E7
:1017800000F05EFB00280AD11048007820700E4857
:101790000088C01E30800D48401C28600FE00A48B9
:1017A000008804280ADB0948007920700648008870
:1017B00030800648801D2860082700E00527FEF7D6
:1017C00021FF3846F8BD00004200002094030020AD
:1017D000F8B504460D46164600200090FEF710FFAF
:1017E0001B48007801282DD1681E1949C91C0860C2
:1017F0000120091D0880081F006804700846008841
:101800008019088008460188001F006800F018FB56
:1018100007460F4AD21D1088421C0D4BDB1D1A8053
:101820000C4A175439121A461088421C1A80094A69
:10183000115401201946083908700121002000F0D8
:1018400019FB01E005200090FEF7DCFE0098F8BDD2
:10185000390000209403002010B5FEF7D1FE0020CF
:10186000054908700021012000F004FB00F02EFB68
:10187000FEF7C8FE10BD00003900002010B5FEF7CD
:10188000BFFE0021084600F0F5FA00F015FBFEF758
:10189000B9FE10BDFFB589B004460D4616460020BE
:1018A00008903046F117490F8919C910491C069153
:1018B00000F018FB00280FD000F0C0FA484940188B
:1018C0000590012004900820039046480088C0B28B
:1018D000029001200C9009E04348059001200490FB
:1018E0000820039041480088C0B2029004988542C5
:1018F00071DBA819039A0499891888426BDC029954
:10190000681AC117490F0918CF100299681AC11730
:10191000490F0918C910C900411A07910C980028ED
:1019200002D0012855D126E00EE007998BB2394646
:101930007F1C059A88180822194600F00FFC2070B9
:10194000641C0698401E069006980028EDDC641E74
:101950003046F117490F8919C910C900711A8EB2A2
:1019600020780821891B8840207020780821891B55
:10197000084120702DE010E02378641C079880B2A5
:10198000009038467F1C0599401808220190009964
:1019900000F0FBFB0698401E069006980128EBDC41
:1019A0003046F117490F8919C910C900711A8EB252
:1019B000002E0DD02378641CF2B2079880B20090FC
:1019C00038467F1C059940180190009900F0DDFB16
:1019D00000BF02E0FFE70120089008980DB0F0BDBD
:1019E000840100201E000020350000201600002089
:1019F000F0B589B004460F461546002008902846E9
:101A0000E917490F4919C910491C059100F06AFAF4
:101A100000280CD000F012FA454946180120049025
:101A20000820039043480088C0B2029008E0424E6C
:101A3000012004900820039040480088C0B2029022
:101A4000049887426EDB7819039A049989188842B2
:101A500068DC0299781AC117490F0918C910079153
:101A60000299781AC117490F0918C910C900411AFB
:101A7000069100F037FA00282DD010E02378641C7E
:101A8000069880B200900798411C8019082207919F
:101A90000190009900F079FB0598401E059005988B
:101AA0000128EBDC2846E917490F4919C910C9007C
:101AB000691A8DB2002D37D02378641CEAB20698DB
:101AC00080B200900798411C8019079101900099FD
:101AD00000F05BFB28E00EE006998BB207994A1CE8
:101AE000881907920822194600F038FB2070641C00
:101AF0000598401E059005980028EDDC641E2846D8
:101B0000E917490F4919C910C900691A8DB220781F
:101B10000821491B8840207020780821491B084172
:101B2000207001E001200890089809B0F0BD000085
:101B3000740100201C00002034000020140000204C
:101B4000FFB583B004460020029000F0CBF90028D6
:101B50000ED000F073F90001254FC51901260820A9
:101B6000019024480088C0B200900120069007E050
:101B7000214D01261820019020480088C0B2009015
:101B8000B14230DB8818019FF719B8422BDC00986E
:101B90000B1A0698002802D0012823D10FE00BE091
:101BA0005800285A00122070641C5800285A2070CF
:101BB000641C5B1C501E82B2002AF1DC12E00EE0B5
:101BC0002078641C00025F00E8532078641C5F00EA
:101BD000EF5B38435F00E8535B1C501E82B2002A63
:101BE000EEDC00BF01E001200290029807B0F0BDDA
:101BF0009402002022000020440100201A0000204E
:101C0000FEB503460020029000F06CF900280CD0CD
:101C100000F014F90001204FC51901260820019099
:101C20001E480088C0B2009007E01D4D0126082024
:101C300001901C480088C0B20090B14227DB881890
:101C4000019FF719B84222DC00980C1A1CE000F042
:101C500049F900280CD018785B1C00026700E85393
:101C600018785B1C6700EF5B38436700E85308E0B7
:101C70006000285A001218705B1C6000285A187007
:101C80005B1C641C501E82B2002AE0DC01E00120D3
:101C900002900298FEBD0000940100202000002068
:101CA000340100201800002008B500BF06E05920CC
:101CB00013490860162008608820086010480068F2
:101CC0000128F4D100BFFEF7C5FDFEF775FDFEF754
:101CD000C7FBFEF77DFF00220A48009201781046FC
:101CE0004B23DB01FFF7A6FBFFF7E4F807E0FEF765
:101CF0003BFCFEF76FFBFEF78DFAFFF701FCF6E702
:101D00000001005004000020F8B504460D461646B8
:101D100000200090FEF774FC002E03D1FEF772FC49
:101D20000098F8BD2E480078012853D12D482C4941
:101D3000C91C0860FF200968087055202849C91C83
:101D40000968487005202649C91C09688870002068
:101D50002349C91C0968C8702148C01C0068047167
:101D600000201F49C91C0968487106201C49C91D6B
:101D70000880091F09681A4AD21D1288881832463D
:101D80002946FEF7F7F91648C01D00888019144946
:101D9000C91D088008460188001F0068FFF72AF85F
:101DA000074639120E4AD21D1088421C0C4BDB1D0F
:101DB0001A800C4A11541A461088421C1A80094A8B
:101DC000175401201946083908700121002000F03D
:101DD00051F801E005200090FEF714FC0098A0E700
:101DE00039000020940300200146002904D0012975
:101DF00004D0072906D103E0002005E0022003E01B
:101E0000062001E0042000BF00BF704710B5024863
:101E10000068804710BD0000F400002010B50248A3
:101E20000068804710BD0000EC00002010B502489B
:101E30000068804710BD0000F000002000207047BF
:101E400070B50246FF23FF2408E01578521C654058
:101E50000648405D584004460548435D08464E1E0E
:101E6000B1B20028F1D11802204370BDDA21000080
:101E7000DA220000002806D00E4A526801231A43D5
:101E80000C4B5A6005E00B4A526852085200094B4D
:101E90005A60002906D0074A526802231A43054BAC
:101EA0005A6005E0034A526802239A43014B5A6084
:101EB00070470000000005400020024908700249F8
:101EC00008607047080000200C0000200120034932
:101ED00008700020024908607047000008000020D8
:101EE0000C0000200020704701460020064A1278AE
:101EF000002A07D0044A521E12780A700022024BB0
:101F00001A700120704700000600002000200249DE
:101F100008700120704700000600002001460120E3
:101F2000024A1070501E0170012070470600002008
:101F30000146024800680870012070470000054013
:101F4000F8B505460C4616461F461348FEF7BAFC80
:101F50000022032109061148FEF7FCF90F48FEF79D
:101F60006DF921460E48FEF7DFFEFEF749FB0C48EF
:101F70004068012108430A49486002210C20FEF70D
:101F8000A3FB00BF0C21012088400649086000BF68
:101F9000FEF738FB0120F8BD10000004103D80273B
:101FA0000000054000E100E0014602480160012018
:101FB000704700000000054010B504461248048038
:101FC000124A0121C9061248FEF76CFD00BF1048F5
:101FD00000680121490708430D49086000BF03213B
:101FE0000920FEF7ADFB00BF092101208840094907
:101FF000086000BF00BF064800688905084304491F
:10200000086000BF012010BD10000020204E00001D
:102010002000014000E100E038B500246846FFF7E9
:1020200087FF1F480078002806D001280AD0022820
:102030001BD0032830D102E0FFF748FF2CE0FFF768
:1020400045FF29E000201649093108806B461A78BF
:102050000888411C124B0933198012490A54022086
:102060000F490870FFF732FF16E00D48093000886D
:10207000FF280BDC6B461A78094909310888411C96
:10208000074B0933198007490A5402E00320044929
:102090000870FFF71BFF00BF00BF204638BD0000DF
:1020A000390000209403002010B500240E48007869
:1020B000002804D0022807D003280BD109E0002013
:1020C000FFF72CFF044606E00120FFF727FF044638
:1020D00001E000E000BF00BFFFF7EEFE0120024973
:1020E0000870204610BD00003900002010B5002403
:1020F00019480078002802D0012829D104E00021E5
:102100000120FFF7B7FE23E01348083000880028BD
:1021100012D01149091D09680878FFF745FF0E48DC
:10212000001D0068401C0C49091D0860081D00883E
:10213000401E091D08800AE00320FFF7EFFE044659
:1021400000210120FFF796FE00200349087000BF20
:1021500000BF204610BD000038000020F0B5034647
:10216000CE08F000081A87B201209040401E85B2C8
:102170009C5D701C185C000204432046384184B208
:10218000204628400446E0B2F0BDFFB582B000937F
:10219000CD08EE008E1BB6B20196009B1F46019E35
:1021A000B740BEB200960127049EB7407E1EB4B26F
:1021B000EE008E1B2746B740BCB2425D6E1C865DAA
:1021C000360232431646A643009F3E4332464255EE
:1021D00016126F1CC65506B0F0BD00C1814001C08B
:1021E000804101C0804100C1814001C0804100C1E7
:1021F000814000C1814001C0804101C0804100C1D7
:10220000814000C1814001C0804100C1814001C0C6
:10221000804101C0804100C1814001C0804100C1B6
:10222000814000C1814001C0804100C1814001C0A6
:10223000804101C0804100C1814000C1814001C096
:10224000804101C0804100C1814001C0804100C186
:10225000814000C1814001C0804101C0804100C176
:10226000814000C1814001C0804100C1814001C066
:10227000804101C0804100C1814000C1814001C056
:10228000804101C0804100C1814001C0804100C146
:10229000814000C1814001C0804100C1814001C036
:1022A000804101C0804100C1814001C0804100C126
:1022B000814000C1814001C0804101C0804100C116
:1022C000814000C1814001C0804100C1814001C006
:1022D000804101C0804100C1814000C0C101C303F1
:1022E00002C2C60607C705C5C404CC0C0DCD0FCF6E
:1022F000CE0E0ACACB0BC90908C8D81819D91BDBDE
:10230000DA1A1EDEDF1FDD1D1CDC14D4D515D7172D
:1023100016D6D21213D311D1D010F03031F133F3DD
:10232000F23236F6F737F53534F43CFCFD3DFF3F2D
:102330003EFEFA3A3BFB39F9F83828E8E929EB2B5D
:102340002AEAEE2E2FEF2DEDEC2CE42425E527E7ED
:10235000E62622E2E323E12120E0A06061A163A35D
:10236000A26266A6A767A56564A46CACAD6DAF6FED
:102370006EAEAA6A6BAB69A9A86878B8B979BB7B5D
:102380007ABABE7E7FBF7DBDBC7CB47475B577B7AD
:10239000B67672B2B373B17170B0509091519353DD
:1023A000529296565797559594549C5C5D9D5F9FAD
:1023B0009E5E5A9A9B5B99595898884849894B8BDD
:1023C0008A4A4E8E8F4F8D4D4C8C4484854587476D
:1023D0004686824243834181804000002110422092
:1023E00063308440A550C660E770088129914AA1F6
:1023F0006BB18CC1ADD1CEE1EFF13112100273326D
:102400005222B5529442F772D662399318837BB345
:102410005AA3BDD39CC3FFF3DEE3622443342004FC
:102420000114E664C774A44485546AA54BB5288595
:102430000995EEE5CFF5ACC58DD55336722611164C
:102440003006D776F6669556B4465BB77AA71997E5
:102450003887DFF7FEE79DD7BCC7C448E5588668D4
:10246000A7784008611802282338CCC9EDD98EE935
:10247000AFF9488969990AA92BB9F55AD44AB77AAC
:10248000966A711A500A333A122AFDDBDCCBBFFB85
:102490009EEB799B588B3BBB1AABA66C877CE44CBC
:1024A000C55C222C033C600C411CAEED8FFDECCDD5
:1024B000CDDD2AAD0BBD688D499D977EB66ED55E8C
:1024C000F44E133E322E511E700E9FFFBEEFDDDF25
:1024D000FCCF1BBF3AAF599F788F8891A981CAB1B1
:1024E000EBA10CD12DC14EF16FE18010A100C230E3
:1024F000E3200450254046706760B9839893FBA39E
:10250000DAB33DC31CD37FE35EF3B1029012F32232
:10251000D2323542145277625672EAB5CBA5A895ED
:1025200089856EF54FE52CD50DC5E234C324A01482
:1025300081046674476424540544DBA7FAB799877D
:10254000B8975FE77EF71DC73CD7D326F2369106D2
:10255000B01657667676154634564CD96DC90EF9C5
:102560002FE9C899E9898AB9ABA944586548067822
:102570002768C018E1088238A3287DCB5CDB3FEBDD
:102580001EFBF98BD89BBBAB9ABB754A545A376A72
:10259000167AF10AD01AB32A923A2EFD0FED6CDDAD
:1025A0004DCDAABD8BADE89DC98D267C076C645CC2
:1025B000454CA23C832CE01CC10C1FEF3EFF5DCFBD
:1025C0007CDF9BAFBABFD98FF89F176E367E554E12
:1025D000745E932EB23ED10EF01E0000001BB700B9
:1025E00000000000000000000000000000000000EB
:1025F000102700000000000000805101001BB70000
:10260000000000000000000000805101001BB70026
:10261000000000000000000000805101001BB70016
:10262000000000000000000000805101001BB70006
:102630000000000080F0FA021027000000000000F7
:10264000000000000000000000805101C0F9A4B0AB
:10265000999282F880900000782600000000002007
:1026600034010000BC010000D42600003401002029
:1026700084050000E60D00000114DA010222341B7B
:102680002035041334011B204404011432023204A7
:1026900023210E32114B59121023E31032031A5723
:1026A0000819031123C91332061AF12032171A6FC1
:1026B0002D32011ADD3832051A8118320F1A3128ED
:1026C00029542A9B0D015B5E80F0FA023208011C3E
:0426D00029A48100B8
:04000005000000D522
:00000001FF
